S012000068775F636F756E7465722E73726563D4
S11300007400C0060400E0DE3A30F6DED401C0DE3F
S11300103A30F6DE740080060470B2D6340000066E
S1130020047612C634008000043681103A68001049
S11300301441A800370000118400C000260EC0201F
S1130040370000114400C000260BC0203700C01048
S11300501448A8003500C0103700C0101440E80050
S11300603700C0183500C0101448A80037008010AD
S11300703A8807003A2800F81440A8003700C01056
S1130080040280001EF8BF18C4FFFF001448A80033
S11300903500C0101448A800370080103A880700C3
S11300A03A2800F832C045213A2800F814C0A800C4
S11300B03500001014C4A8003500001014C8A800AE
S11300C03500001014CCA8003500001014D0A8008E
S11300D03500001014D4A8003500001014D8A8006E
S11300E03500001014DCA800350000104400C000E6
S11300F014E0A8003500C0103A2800F81441AD00FF
S113010014C0E8003500801814C4E80035008018D5
S1130110F4FF3F0114C8E8003500001804BF1221A1
S113012014CCE8003500001914D0E800350080181C
S113013014D4A8003500001014D8A800350000100D
S113014014DCA800350000104400C00014E0A8002E
S11301503500C0103A2800F80499F0DE340040015C
S1130160040C4229045E8F01040100D91566CFDF17
S113017015650FDD1564CFDC15638FDC15624FDC6C
S113018015610FDCC0380000C00F00000003000040
S11301903A882910040100DC040240DC045F8FDC8F
S11301A014C0E80417004089170000813A880F90B2
S11301B004608FD91500C0DCC0200000175F4FD940
S11301C017600FD9C40180010402008400370000C5
S11301D00402408C1EF3BF84000300003AC80515D6
S11301E01448E800350080183A8805001766CFDF08
S11301F017650FDD1764CFDC17638FDC17624FDCE4
S113020017610FDC0467CFDE3A2800F804F9FFDE3B
S1130210150140DC170740DC150280DC04ECBF2428
S1130220170000891503C0DC040FC02C3A880B901A
S11302301506C0DF150540DD150400DD3A882B30B6
S11302403A882938150000DC400A000017040089A8
S11302503A880B983A882110400A00001708C08891
S1130260170C00893A880B903A8885803A88E11007
S1130270400A0000171000893A880B983A88251024
S1130280400A00001714C0883A8885903A8809808B
S11302903A88C510161000803AD4092004140021AD
S11302A0150000A9161200103AD4051004F1BF106D
S11302B0150080A01706C0DF170540DD170400DD18
S11302C01703C0DC170280DC170140DC170000DCD8
S11302D00407C0DE3A2800F8D4FFFF003A88C9803A
S11302E03AD4092004140021150000A90EEE3F1091
S11302F0D4FFFF003A88C51006EB3F003A8805306A
S1130300260A00303A889129140122011400E201DE
S11303103700C020ECFFFF1826FD3F180700C02857
S11303203500C038440040291EF93F2A3A2800F815
S1130330140022013700C0200C00A01826FD3F1035
S11303403AD40518440080102E0180303A880530D4
S11303500E0680003A888D28140022010500C0286A
S11303603700C020440040291EFCBF293A2800F869
S11303703A9208203A940C301480A8003A884B2111
S11303803A888D29350080113A2800F804FDFFDEF3
S11303901502C0DF150140DC150000DCC403C000F9
S11303A03A8805202E4580193AB00629CC00C01899
S11303B01E44001804FC7F343AD122880401C0286A
S11303C0040140233A9120880402002B0402C02235
S11303D0040500840403802A040340223A88212C63
S11303E03A8811283A880F20170000411700C01FCF
S11303F01700C06315000039170080531500C06F43
S11304001500C05B1500804B0404C0180404C039F7
S1130410040400420404406B040400630404C05A4E
S1130420040480520404404A1EEF3F1C4400C08967
S11304303A910E38CC030031C400C0023A88C71187
S11304403A88CB292E2100593A8813183A88112862
S11304503A880F20170080420401404A04FFFF3904
S113046015FFBF4A0401004236FAFF5904FF3F2139
S1130470BAD00820CC008031440000213A880921F8
S11304803A8809213A8807193A880B292606003048
S11304903A888D190300C0294400C018440040293B
S11304A0C5FFFF191EFBBF191702C0DF170140DC8F
S11304B0170000DC0403C0DE3A2800F83A8807205D
S11304C006F23F003A88072006F13F003A880D20E3
S11304D006EE3F003A2800F8340080003400800122
S11304E0047692100476923104FFFFDE3A880B0002
S11304F03A8809103AC88D301500C0DFC051000099
S1130500404D00003A8809003A880D003A880B00F3
S1130510801500003A88091000520000815500003F
S113052004FEFFDE3A880B00150000DC1501C0DF75
S11305303A8821200068000034008000047492107E
S113054017000011170F8020260100103AE83E1012
S11305503A88098040800000CC00C0203A880520F9
S113056026440018C4FFFF31264000303A8813287F
S11305703A880D203A88072006040000C4FF3F3A59
S113058044008031263900383A880F404400C018AE
S113059005004032CC00001A1EF83F40C4000001A0
S11305A02E2DC021CC3F00293A920C203AB00831BC
S11305B03A940C203AB08C21C40300012E18C021B7
S11305C004FC3F3B3AD118600401001A0402C01A2B
S11305D03A9108600403801A3A881318040500212C
S11305E03A88091915008049150080411500805981
S11305F015008051040400420404404A0404C05A13
S1130600040480521EF73F41440000633A9118608D
S1130610CC03C039C40000013A88071B2E0EC02148
S11306203A8813183A881138C4000001150080492B
S113063004FF3F420401404A36FC3F2204FF3F3995
S1130640BAD00820CC00C039440000213A880921DE
S11306503A8809213A880719260500383A88CF19BB
S1130660050040194400C0181EFDFF383A2800F860
S11306703A2800F83A8807203A880F3006C73F0026
S113068004F5FFDE150900DF150640DD150380DCE7
S1130690150AC0DF1508C0DD150780DD150500DD6E
S11306A01504C0DC150240DC150100DC150000D97E
S11306B03A88392844008004C4FF7F053400800050
S11306C00474921017000012175200450452C044DB
S11306D0261C00A0170180A0C4FFFF15160D00B84A
S11306E0440000143A8821843A88218404204084F8
S11306F03A8863A43A8821A4261E00E0174080802B
S1130700261C80E0C4FFFFBD04FF3F8404FF7F8CF0
S11307101EF97FBD340080000400801026090010FB
S1130720170180A01E300010170080A02632001090
S11307303A8809A015008098000000001700009D69
S11307401EE43FA0170AC0DF170900DF1708C0DD49
S1130750170780DD170640DD170500DD1704C0DC30
S1130760170380DC170240DC170100DC040BC0DE39
S11307703A2800F8170180A01700C080C4FFBF10FA
S11307802614C0151500008026DE3F183A98C89537
S1130790176280A0170180A53A708420260B0010F0
S11307A0176380A03A7088201E0C0020170040892F
S11307B0170000D93AE83E18170180A01EBFBF15E4
S11307C01700809826CF3F1506BC3F003AE83E1834
S11307D006F93F001501C0A506EB3F00170000898C
S11307E03AE83E1806F43F00170080A03A8827A094
S11307F03A88291006B63F003A88050006FB3F00F8
S11308003A2800F804FEFFDE150000DC1501C0DF05
S11308103A882120008000003A88058006FF3F00C6
S11308201701C0DF170000DC0402C0DE3A2800F81C
S1130830530000000100000054000000010000000B
S113084055000000010000005600000001000000F7
S113085057000000010000005800000001000000E3
S113086059000000010000005A00000001000000CF
S11308705B000000010000005C00000001000000BB
S113088042000000020000004300000002000000DB
S113089044000000020000004500000002000000C7
S11308A046000000020000004700000002000000B3
S11308B0480000000200000049000000020000009F
S11308C04A000000020000004B000000020000008B
S11308D04C000000020000004D0000000200000077
S11308E0500000000200000051000000020000005F
S11308F0520000000200000053000000020000004B
S11309005D000000020000005E0000000200000024
S11309105F000000020000003D0000000300000032
S11309203E000000030000003F0000000300000040
S113093040000000030000004B0000000300000022
S11309404C000000030000004D0000000300000004
S11309504E000000030000004F00000003000000F0
S113096050000000030000006000000003000000CD
S113097061000000030000004700000004000000C4
S113098048000000040000004900000004000000CA
S11309904A000000040000004B00000004000000B6
S11309A04C0000000400000062000000040000008D
S11309B063000000040000003B000000050000008C
S11309C04400000005000000450000000500000090
S11309D0460000000500000047000000050000007C
S11309E06400000005000000650000000500000030
S11309F03A000000060000003B0000000600000072
S1130A004200000006000000430000000600000051
S1130A10440000000600000066000000060000001C
S1130A206700000006000000390000000700000015
S1130A303B00000007000000400000000700000029
S1130A4041000000070000006700000007000000EC
S1130A5068000000070000007400000007000000A8
S1130A607500000007000000760000000700000089
S1130A707700000007000000780000000700000075
S1130A8079000000070000007A0000000700000061
S1130A907B00000007000000380000000800000090
S1130AA039000000080000003B00000008000000BE
S1130AB03E000000080000003F00000008000000A5
S1130AC06900000008000000710000000800000038
S1130AD0720000000800000073000000080000001D
S1130AE07400000008000000750000000800000009
S1130AF076000000080000007700000008000000F5
S1130B0078000000080000007900000008000000E0
S1130B107A000000080000007B00000008000000CC
S1130B207C000000080000007D00000008000000B8
S1130B307E000000080000007F00000008000000A4
S1130B4038000000090000003C000000090000001B
S1130B503D000000090000003E0000000900000004
S1130B606F00000009000000700000000900000090
S1130B7071000000090000007B0000000900000073
S1130B807C000000090000007F0000000900000054
S1130B90800000000900000081000000090000003E
S1130BA0820000000900000083000000090000002A
S1130BB0370000000A0000003A0000000A000000AC
S1130BC03B0000000A0000003C0000000A00000096
S1130BD06E0000000A0000006F0000000A00000020
S1130BE0720000000A0000007C0000000A000000FF
S1130BF07D0000000A000000830000000A000000DD
S1130C00840000000A000000850000000A000000C3
S1130C10860000000A000000870000000A000000AF
S1130C20880000000A000000370000000B000000EC
S1130C30390000000B0000003A0000000B00000027
S1130C406D0000000B000000720000000B000000AB
S1130C50740000000B0000007D0000000B00000089
S1130C607E0000000B000000870000000B00000065
S1130C70880000000B000000890000000B00000049
S1130C808A0000000B0000008B0000000B00000035
S1130C90360000000C000000380000000C000000CA
S1130CA0390000000C0000006C0000000C00000083
S1130CB0700000000C000000710000000C00000037
S1130CC0730000000C000000740000000C00000021
S1130CD0760000000C0000007E0000000C00000004
S1130CE08B0000000C0000008C0000000C000000D1
S1130CF08D0000000C0000008E0000000C000000BD
S1130D00360000000D000000370000000D00000058
S1130D10380000000D0000006B0000000D00000012
S1130D206F0000000D000000710000000D000000C5
S1130D30730000000D000000760000000D000000AC
S1130D40790000000D0000007E0000000D0000008E
S1130D508E0000000D0000008F0000000D00000058
S1130D60900000000D000000910000000D00000044
S1130D70350000000E000000360000000E000000E8
S1130D80370000000E0000006B0000000E000000A1
S1130D906F0000000E000000700000000E00000054
S1130DA0730000000E000000750000000E0000003B
S1130DB0780000000E0000007B0000000E00000020
S1130DC07E0000000E0000007F0000000E00000006
S1130DD0910000000E000000920000000E000000D0
S1130DE0930000000E000000940000000E000000BC
S1130DF0350000000F000000360000000F00000066
S1130E006E0000000F000000700000000F000000E2
S1130E10720000000F000000750000000F000000C9
S1130E20780000000F0000007A0000000F000000AE
S1130E307B0000000F0000007D0000000F00000098
S1130E407F0000000F000000940000000F0000006D
S1130E50950000000F000000960000000F00000045
S1130E6034000000100000003500000010000000F5
S1130E706E000000100000006F0000001000000071
S1130E80700000001000000072000000100000005C
S1130E907400000010000000770000001000000043
S1130EA07A000000100000007C0000001000000028
S1130EB07D000000100000007F0000001000000012
S1130EC096000000100000009700000010000000D1
S1130ED09800000010000000330000001100000022
S1130EE034000000110000006D000000110000003B
S1130EF06F000000110000007100000011000000EC
S1130F0074000000110000007700000011000000D0
S1130F1079000000110000007C00000011000000B6
S1130F207F0000001100000080000000110000009C
S1130F3099000000110000009A0000001100000058
S1130F403200000012000000330000001200000014
S1130F503B000000120000006D00000012000000C1
S1130F606E0000001200000070000000120000007B
S1130F707100000012000000730000001200000065
S1130F80760000001200000079000000120000004A
S1130F907B0000001200000080000000120000002E
S1130FA09B000000120000009C00000012000000E2
S1130FB031000000130000003200000013000000A4
S1130FC03B000000130000006C0000001300000050
S1130FD06E00000013000000700000001300000009
S1130FE073000000130000007600000013000000EE
S1130FF078000000130000007B00000013000000D4
S113100080000000130000009B000000130000009B
S11310109C000000130000003000000014000000D9
S1131020310000001400000039000000140000002A
S11310303A000000140000006D00000014000000DD
S11310407000000014000000720000001400000092
S11310507500000014000000780000001400000077
S11310607A0000001400000080000000140000005A
S113107030000000150000003A00000015000000D8
S11310806F00000015000000720000001500000051
S11310907500000015000000770000001500000036
S11310A07A000000150000007C000000150000001C
S11310B080000000150000002F0000001600000052
S11310C038000000160000006E000000160000004A
S11310D06F00000016000000710000001600000000
S11310E074000000160000007700000016000000E5
S11310F079000000160000007C00000016000000CB
S113110080000000160000008100000016000000AE
S11311102E00000017000000360000001700000039
S1131120380000001700000039000000170000001C
S11311306E0000001700000071000000170000009E
S11311407400000017000000760000001700000083
S1131150780000001700000079000000170000006C
S11311607B00000017000000800000001700000052
S113117081000000170000002D000000180000008E
S113118034000000180000003600000018000000C1
S113119037000000180000003900000018000000AB
S11311A06D000000180000006E0000001800000030
S11311B07000000018000000730000001800000018
S11311C07500000018000000760000001800000000
S11311D078000000180000007A00000018000000E9
S11311E07B000000180000007E00000018000000D2
S11311F080000000180000008100000018000000BA
S11312002C000000190000002D000000190000004F
S113121034000000190000007000000019000000F4
S113122073000000190000007500000019000000A0
S113123077000000190000007A0000001900000087
S11312407D0000001900000080000000190000006B
S113125081000000190000002B0000001A000000AB
S11312602C0000001A000000340000001A000000E6
S1131270350000001A000000380000001A000000C9
S11312806F0000001A000000720000001A00000045
S1131290740000001A000000770000001A0000002B
S11312A0790000001A0000007C0000001A00000011
S11312B0810000001A0000002A0000001B0000004A
S11312C02B0000001B0000006F0000001B0000004A
S11312D0720000001B000000740000001B000000EE
S11312E0760000001B000000790000001B000000D5
S11312F07C0000001B000000810000001B000000B7
S1131300290000001C0000002A0000001C0000004E
S1131310710000001C000000730000001C000000AD
S1131320760000001C000000780000001C00000093
S11313307B0000001C000000810000001C00000075
S1131340280000001D000000290000001D0000000E
S1131350710000001D000000730000001D0000006B
S1131360750000001D000000780000001D00000052
S11313707B0000001D0000007D0000001D00000037
S11313807E0000001D000000810000001D00000020
S1131390820000001D000000270000001E00000065
S11313A0280000001E000000700000001E00000065
S11313B0720000001E000000740000001E00000007
S11313C0750000001E000000770000001E000000F1
S11313D07A0000001E0000007D0000001E000000D6
S11313E0820000001E000000270000001F00000013
S11313F0700000001F000000720000001F000000C9
S1131400740000001F000000770000001F000000AF
S11314107A0000001F0000007C0000001F00000094
S1131420820000001F000000830000001F00000075
S1131430260000002000000027000000200000001B
S113144036000000200000007100000020000000B1
S1131450730000002000000076000000200000005F
S113146079000000200000007C0000002000000043
S11314707E00000020000000830000002000000027
S113148025000000210000002600000021000000CB
S11314903500000021000000710000002100000060
S11314A0730000002100000076000000210000000D
S11314B079000000210000007B00000021000000F2
S11314C07E000000210000008300000021000000D5
S11314D0240000002200000025000000220000007B
S11314E0340000002200000035000000220000004B
S11314F070000000220000007200000022000000C2
S113150075000000220000007800000022000000A6
S11315107B000000220000007D000000220000008B
S113152084000000220000002300000023000000CB
S113153024000000230000007200000023000000CB
S11315407500000023000000780000002300000064
S11315507A000000230000007D000000230000004A
S11315607F0000002300000084000000230000002E
S1131570330000002400000071000000240000007B
S11315807400000024000000750000002400000026
S1131590770000002400000079000000240000000F
S11315A07A000000240000007C00000024000000F9
S11315B07F000000240000008400000024000000DC
S11315C08500000024000000240000002500000025
S11315D070000000250000007100000025000000DC
S11315E074000000250000007600000025000000C3
S11315F077000000250000007900000025000000AD
S11316007C000000250000007F0000002500000091
S113161085000000250000002400000026000000D2
S113162032000000260000007000000026000000C8
S11316307300000026000000740000002600000073
S1131640760000002600000078000000260000005C
S11316507B000000260000007E0000002600000041
S11316607F0000002600000080000000260000002B
S1131670850000002600000086000000260000000F
S113168032000000270000005F0000002700000077
S113169062000000270000006F0000002700000027
S11316A07200000027000000730000002700000003
S11316B075000000270000007800000027000000EB
S11316C07B000000270000007D00000027000000D0
S11316D07F000000270000008000000027000000B9
S11316E086000000270000002400000028000000FD
S11316F025000000280000005E0000002800000013
S11317005F000000280000006200000028000000C4
S113171063000000280000006F00000028000000A3
S1131720720000002800000074000000280000007F
S11317307500000028000000770000002800000069
S11317407A000000280000007D000000280000004E
S11317507E000000280000007F0000002800000038
S1131760810000002800000086000000280000001E
S113177023000000290000002400000029000000CC
S113178025000000290000002C00000029000000B2
S11317905F00000029000000600000002900000034
S11317A0610000002900000063000000290000001F
S11317B064000000290000006E0000002900000001
S11317C072000000290000007400000029000000DD
S11317D076000000290000007700000029000000C6
S11317E07A000000290000007C00000029000000AD
S11317F07F00000029000000800000002900000094
S11318008600000029000000210000002A000000DA
S1131810220000002A000000230000002A0000002B
S1131820240000002A000000250000002A00000017
S1131830260000002A0000002C0000002A000000FE
S1131840390000002A0000005D0000002A000000AA
S11318505E0000002A000000600000002A00000072
S1131860620000002A000000630000002A0000005B
S1131870710000002A000000730000002A0000002C
S1131880740000002A000000750000002A00000017
S1131890760000002A000000790000002A00000001
S11318A07C0000002A0000007E0000002A000000E6
S11318B0800000002A000000860000002A000000CA
S11318C0870000002A000000240000002B00000014
S11318D0250000002B000000260000002B00000063
S11318E02B0000002B0000002C0000002B00000047
S11318F0300000002B000000380000002B00000026
S1131900390000002B0000005F0000002B000000E5
S1131910600000002B000000630000002B000000AA
S1131920640000002B000000650000002B00000094
S1131930710000002B000000730000002B00000069
S1131940750000002B000000790000002B0000004F
S11319507B0000002B0000007E0000002B00000034
S11319607F0000002B000000860000002B00000018
S1131970870000002B000000260000002C0000005F
S11319802B0000002C0000002F0000002C000000A1
S1131990370000002C000000380000002C0000007C
S11319A0390000002C0000003A0000002C00000068
S11319B05A0000002C0000005B0000002C00000016
S11319C05C0000002C0000005E0000002C00000001
S11319D0600000002C000000640000002C000000E7
S11319E0650000002C000000720000002C000000C4
S11319F0730000002C000000740000002C000000A4
S1131A00750000002C000000780000002C0000008D
S1131A107A0000002C0000007B0000002C00000075
S1131A207D0000002C0000007F0000002C0000005E
S1131A30810000002C000000860000002C00000043
S1131A40870000002C000000260000002D0000008C
S1131A502A0000002D0000002B0000002D000000D3
S1131A602F0000002D000000360000002D000000B3
S1131A70370000002D000000380000002D00000099
S1131A80390000002D0000005B0000002D00000064
S1131A905D0000002D0000005E0000002D0000002D
S1131AA05F0000002D000000600000002D00000019
S1131AB0610000002D000000620000002D00000005
S1131AC0640000002D000000650000002D000000EF
S1131AD0660000002D000000710000002D000000D1
S1131AE0720000002D000000740000002D000000B2
S1131AF0770000002D000000780000002D00000099
S1131B007A0000002D0000007D0000002D00000080
S1131B107F0000002D000000810000002D00000067
S1131B20860000002D000000870000002D0000004A
S1131B30260000002E0000002A0000002E000000F5
S1131B402E0000002E000000370000002E000000D0
S1131B50380000002E0000003C0000002E000000B1
S1131B603D0000002E0000003E0000002E0000009A
S1131B703F0000002E000000400000002E00000086
S1131B80410000002E000000420000002E00000072
S1131B90430000002E000000440000002E0000005E
S1131BA0450000002E000000460000002E0000004A
S1131BB0470000002E000000480000002E00000036
S1131BC0490000002E0000005B0000002E00000011
S1131BD05C0000002E0000005E0000002E000000EB
S1131BE0610000002E000000630000002E000000D1
S1131BF0650000002E000000710000002E000000AF
S1131C00730000002E000000740000002E0000008D
S1131C10770000002E000000790000002E00000074
S1131C207C0000002E0000007E0000002E0000005A
S1131C30810000002E000000870000002E0000003C
S1131C40260000002F000000290000002F000000E3
S1131C502A0000002F0000003A0000002F000000BE
S1131C603B0000002F0000003C0000002F0000009B
S1131C703E0000002F0000003F0000002F00000085
S1131C80400000002F000000410000002F00000071
S1131C90420000002F000000430000002F0000005D
S1131CA0440000002F000000450000002F00000049
S1131CB0460000002F000000470000002F00000035
S1131CC0480000002F000000490000002F00000021
S1131CD04A0000002F0000004B0000002F0000000D
S1131CE0590000002F0000005B0000002F000000DE
S1131CF05C0000002F0000005D0000002F000000C9
S1131D00600000002F000000610000002F000000B0
S1131D10620000002F000000640000002F0000009B
S1131D20710000002F000000730000002F0000006D
S1131D30760000002F000000780000002F00000053
S1131D40790000002F0000007C0000002F0000003C
S1131D507E0000002F000000800000002F00000023
S1131D60870000002F000000260000003000000063
S1131D7029000000300000002D00000030000000A9
S1131D803400000030000000390000003000000082
S1131D903A000000300000003B000000300000006A
S1131DA03E00000030000000400000003000000051
S1131DB0410000003000000042000000300000003C
S1131DC04300000030000000440000003000000028
S1131DD04500000030000000460000003000000014
S1131DE04700000030000000480000003000000000
S1131DF049000000300000004A00000030000000EC
S1131E004B000000300000005900000030000000CA
S1131E105A000000300000005C00000030000000A8
S1131E205E000000300000005F0000003000000091
S1131E30610000003000000062000000300000007B
S1131E406400000030000000650000003000000065
S1131E507600000030000000780000003000000030
S1131E607B000000300000007D0000003000000016
S1131E7080000000300000008700000030000000F7
S1131E80260000003100000028000000310000009E
S1131E9029000000310000002C0000003100000087
S1131EA03400000031000000380000003100000060
S1131EB039000000310000003A0000003100000049
S1131EC03C000000310000003D0000003100000033
S1131ED03E0000003100000040000000310000001E
S1131EE04100000031000000420000003100000009
S1131EF043000000310000004400000031000000F5
S1131F0045000000310000004600000031000000E0
S1131F1048000000310000004900000031000000CA
S1131F204A000000310000004B00000031000000B6
S1131F304C00000031000000580000003100000097
S1131F4059000000310000005B0000003100000077
S1131F505C0000003100000060000000310000005F
S1131F606200000031000000630000003100000046
S1131F70750000003100000077000000310000000F
S1131F8078000000310000007B00000031000000F8
S1131F907D000000310000007F00000031000000DF
S1131FA083000000310000008700000031000000C1
S1131FB0250000003200000026000000320000006E
S1131FC0280000003200000034000000320000004D
S1131FD0370000003200000038000000320000002A
S1131FE039000000320000003A0000003200000016
S1131FF03B000000320000003C0000003200000002
S11320003D000000320000003E00000032000000ED
S11320103F000000320000004100000032000000D8
S113202042000000320000004300000032000000C3
S113203044000000320000004500000032000000AF
S1132040460000003200000047000000320000009B
S113205049000000320000004A0000003200000085
S113206058000000320000005A0000003200000056
S11320705B000000320000005D0000003200000040
S11320805E000000320000005F000000320000002B
S11320906100000032000000630000003200000014
S11320A064000000320000007700000032000000ED
S11320B07A000000320000007D00000032000000C1
S11320C07F000000320000008200000032000000A7
S11320D087000000320000009C0000003200000075
S11320E0250000003300000027000000330000003A
S11320F028000000330000002B0000003300000023
S113210037000000330000003800000033000000F6
S113211039000000330000003A00000033000000E2
S11321203C000000330000003D00000033000000CC
S11321303F000000330000004000000033000000B6
S11321404800000033000000490000003300000094
S11321505A000000330000005C000000330000005F
S11321605E000000330000005F0000003300000048
S1132170600000003300000076000000330000001F
S113218079000000330000007A00000033000000F2
S11321907C000000330000007F00000033000000DA
S11321A082000000330000008700000033000000BC
S11321B09A000000330000009B0000003300000080
S11321C09C000000330000002500000034000000E3
S11321D02600000034000000270000003400000046
S11321E02A00000034000000330000003400000026
S11321F03400000034000000360000003400000009
S113220037000000340000003A00000034000000F1
S11322103B000000340000003D00000034000000DA
S11322203E000000340000004000000034000000C4
S113223041000000340000004200000034000000AF
S1132240430000003400000044000000340000009B
S11322504500000034000000460000003400000087
S11322604700000034000000480000003400000073
S11322705700000034000000590000003400000042
S11322805B000000340000005D000000340000002A
S11322905F00000034000000600000003400000013
S11322A061000000340000006200000034000000FF
S11322B063000000340000007600000034000000D9
S11322C079000000340000007C00000034000000AD
S11322D07E00000034000000820000003400000092
S11322E08700000034000000980000003400000063
S11322F099000000340000009A000000340000003F
S11323002500000035000000260000003500000014
S113231036000000350000003800000035000000E1
S113232039000000350000003B00000035000000CB
S11323303C000000350000003D00000035000000B6
S1132340410000003500000043000000350000009B
S11323504400000035000000450000003500000086
S11323605C000000350000005D0000003500000046
S11323705E00000035000000600000003500000031
S1132380610000003500000062000000350000001C
S113239063000000350000007E00000035000000EE
S11323A081000000350000008700000035000000B7
S11323B08800000035000000970000003500000090
S11323C098000000350000002500000036000000E1
S11323D0290000003600000035000000360000002F
S11323E03600000036000000370000003600000010
S11323F03A000000360000003B00000036000000F8
S11324003C000000360000003D00000036000000E3
S11324103F000000360000004000000036000000CD
S113242041000000360000004300000036000000B8
S113243045000000360000005F0000003600000088
S11324406100000036000000630000003600000058
S113245064000000360000007D000000360000002B
S113246081000000360000008300000036000000F8
S113247087000000360000008800000036000000DD
S113248096000000360000009700000036000000AF
S11324902400000037000000250000003700000081
S11324A03400000037000000350000003700000051
S11324B0370000003700000038000000370000003B
S11324C039000000370000003B0000003700000026
S11324D03C000000370000003E0000003700000010
S11324E03F000000370000004000000037000000FB
S11324F061000000370000006200000037000000A7
S11325006300000037000000800000003700000076
S1132510830000003700000087000000370000003F
S1132520880000003700000095000000370000001C
S1132530960000003700000023000000380000006F
S113254024000000380000003600000038000000BD
S11325503700000038000000390000003800000097
S11325603A000000380000003B0000003800000082
S11325703D000000380000003F000000380000006B
S113258064000000380000008000000038000000F3
S113259083000000380000008800000038000000BC
S11325A095000000380000002300000039000000FE
S11325B02700000039000000390000003900000045
S11325C03B000000390000003D000000390000001D
S11325D07F00000039000000800000003900000086
S11325E0820000003900000088000000390000006B
S11325F0940000003900000095000000390000003C
S1132600220000003A000000230000003A0000000D
S1132610820000003A000000840000003A0000003C
S1132620880000003A000000940000003A00000016
S1132630210000003B000000220000003B000000DD
S1132640260000003B000000820000003B00000068
S1132650840000003B000000880000003B000000F4
S1132660930000003B000000940000003B000000C9
S1132670200000003C000000210000003C0000009D
S1132680250000003C000000810000003C00000028
S1132690820000003C000000840000003C000000B8
S11326A0880000003C000000930000003C00000093
S11326B01F0000003D000000200000003D0000005D
S11326C0250000003D000000810000003D000000E6
S11326D0830000003D000000880000003D00000071
S11326E0930000003D0000001F0000003E000000B9
S11326F0240000003E000000830000003E000000B3
S1132700840000003E000000880000003E0000003D
S1132710920000003E000000930000003E00000014
S11327201E0000003F000000820000003F00000087
S1132730830000003F000000840000003F00000010
S1132740880000003F000000920000003F000000ED
S11327501D000000400000001E00000040000000BA
S1132760230000004000000084000000400000003E
S113277088000000400000009200000040000000BB
S11327801C000000410000001D000000410000008A
S1132790220000004100000083000000410000000E
S11327A0880000004100000091000000410000008A
S11327B092000000410000001B00000042000000E5
S11327C01C00000042000000210000004200000044
S11327D08300000042000000880000004200000066
S11327E08900000042000000910000004200000047
S11327F01A000000430000001B000000430000001A
S11328002000000043000000880000004300000096
S11328108900000043000000900000004300000015
S11328209100000043000000190000004400000073
S11328301A000000440000001F00000044000000D3
S113284089000000440000009000000044000000E3
S113285018000000450000001900000045000000B9
S11328601E00000045000000890000004500000033
S11328708F000000450000009000000045000000AB
S11328801700000046000000180000004600000089
S11328901D00000046000000890000004600000002
S11328A08F000000460000001700000047000000F1
S11328B089000000470000008E000000470000006F
S11328C08F000000470000001600000048000000D0
S11328D089000000480000008E000000480000004D
S11328E01500000049000000160000004900000027
S11328F01A000000490000001B000000490000000D
S11329007E0000004900000089000000490000002A
S11329108D00000049000000140000004A0000007F
S1132920150000004A000000190000004A000000E1
S11329307C0000004A0000007D0000004A00000006
S1132940890000004A0000008A0000004A000000DC
S11329508C0000004A0000008D0000004A000000C6
S1132960130000004B000000140000004B000000A6
S1132970180000004B0000007B0000004B0000002A
S11329807C0000004B0000008A0000004B000000A7
S11329908B0000004B0000008C0000004B00000086
S11329A0120000004C000000130000004C00000066
S11329B07A0000004C0000007B0000004C00000086
S11329C08A0000004C0000008B0000004C00000056
S11329D0120000004D000000790000004D000000CE
S11329E07A0000004D000000880000004D00000047
S11329F0890000004D0000008A0000004D00000026
S1132A00110000004E000000780000004E0000009D
S1132A10790000004E000000100000004F0000008C
S1132A20110000004F000000640000004F0000008F
S1132A30650000004F000000660000004F00000029
S1132A40670000004F000000680000004F00000015
S1132A50690000004F000000770000004F000000F4
S1132A60780000004F0000000F000000500000003C
S1132A701000000050000000120000005000000090
S1132A8060000000500000006100000050000000E1
S1132A9062000000500000006300000050000000CD
S1132AA064000000500000006500000050000000B9
S1132AB066000000500000006800000050000000A4
S1132AC069000000500000006A000000500000008F
S1132AD06B000000500000006C000000500000007B
S1132AE07500000050000000760000005000000057
S1132AF077000000500000000E00000051000000AC
S1132B000F000000510000001100000051000000FF
S1132B1014000000510000005D000000510000009E
S1132B205E000000510000005F0000005100000042
S1132B3060000000510000006C0000005100000023
S1132B406D000000510000006E0000005100000004
S1132B506F000000510000007000000051000000F0
S1132B6071000000510000007200000051000000DC
S1132B7073000000510000007400000051000000C8
S1132B8075000000510000000D000000520000001C
S1132B900E0000005200000010000000520000006F
S1132BA01300000052000000140000005200000056
S1132BB05B000000520000005C00000052000000B6
S1132BC05D00000052000000700000005200000090
S1132BD0710000005200000072000000520000006A
S1132BE073000000520000000D00000053000000BC
S1132BF00F0000005300000010000000530000000C
S1132C0012000000530000001400000053000000F4
S1132C10160000005300000059000000530000009B
S1132C205A000000530000005B0000005300000045
S1132C3065000000530000006B000000530000001A
S1132C400C000000540000000E00000054000000BE
S1132C500F000000540000001100000054000000A8
S1132C601200000054000000140000005400000092
S1132C70150000005400000057000000540000003C
S1132C8058000000540000005900000054000000E7
S1132C9065000000540000006B00000054000000B8
S1132CA00B000000550000000C000000550000005F
S1132CB00E00000055000000100000005500000048
S1132CC0130000005500000014000000550000002F
S1132CD01600000055000000170000005500000019
S1132CE05600000055000000570000005500000089
S1132CF066000000550000006C0000005500000054
S1132D000A000000560000000B00000056000000FE
S1132D100C000000560000000D00000056000000EA
S1132D200E000000560000000F00000056000000D6
S1132D3012000000560000001300000056000000BE
S1132D4015000000560000001600000056000000A8
S1132D50420000005600000043000000560000003E
S1132D60440000005600000045000000560000002A
S1132D704600000056000000470000005600000016
S1132D804800000056000000490000005600000002
S1132D904A000000560000004B00000056000000EE
S1132DA04C000000560000004D00000056000000DA
S1132DB04E000000560000004F00000056000000C6
S1132DC055000000560000005600000056000000A8
S1132DD05E0000005600000066000000560000007F
S1132DE06C000000560000000A00000057000000BC
S1132DF00B000000570000000C000000570000000A
S1132E000D000000570000000E00000057000000F5
S1132E100F000000570000001000000057000000E1
S1132E2011000000570000001200000057000000CD
S1132E3014000000570000001500000057000000B7
S1132E40180000005700000019000000570000009F
S1132E503D000000570000003E0000005700000045
S1132E603F00000057000000400000005700000031
S1132E70410000005700000054000000570000000B
S1132E8055000000570000005E00000057000000DD
S1132E9066000000570000006C00000057000000AE
S1132EA009000000580000000A000000580000005B
S1132EB00B000000580000000C0000005800000047
S1132EC00D000000580000000E0000005800000033
S1132ED00F0000005800000010000000580000001F
S1132EE0110000005800000013000000580000000A
S1132EF014000000580000001500000058000000F5
S1132F0016000000580000001700000058000000E0
S1132F103A000000580000003B0000005800000088
S1132F203C0000005800000053000000580000005E
S1132F305400000058000000560000005800000033
S1132F405E00000058000000660000005800000009
S1132F506C00000058000000090000005900000047
S1132F600A000000590000000B0000005900000096
S1132F700C000000590000000D0000005900000082
S1132F800E000000590000000F000000590000006E
S1132F90100000005900000011000000590000005A
S1132FA01200000059000000130000005900000046
S1132FB01400000059000000160000005900000031
S1132FC0180000005900000019000000590000001A
S1132FD037000000590000003800000059000000CC
S1132FE039000000590000005200000059000000A0
S1132FF05300000059000000560000005900000072
S11330005E000000590000006C0000005900000040
S1133010080000005A000000090000005A000000E7
S11330200A0000005A0000000B0000005A000000D3
S11330300C0000005A0000000D0000005A000000BF
S11330400E0000005A0000000F0000005A000000AB
S1133050100000005A000000110000005A00000097
S1133060120000005A000000130000005A00000083
S1133070150000005A000000170000005A0000006C
S1133080180000005A000000200000005A00000050
S1133090340000005A000000350000005A0000000F
S11330A0360000005A000000510000005A000000E1
S11330B0520000005A000000550000005A000000B1
S11330C0560000005A0000005D0000005A00000095
S11330D0650000005A0000006C0000005A00000067
S11330E0070000005B000000080000005B00000017
S11330F0090000005B0000000A0000005B00000003
S11331000B0000005B0000000C0000005B000000EE
S11331100D0000005B0000000E0000005B000000DA
S11331200F0000005B000000100000005B000000C6
S1133130110000005B000000120000005B000000B2
S1133140140000005B000000160000005B0000009B
S1133150170000005B000000320000005B0000006C
S1133160330000005B000000500000005B00000022
S1133170510000005B000000550000005B000000EF
S1133180560000005B0000005D0000005B000000D2
S1133190650000005B0000006C0000005B000000A4
S11331A0070000005C000000080000005C00000054
S11331B0090000005C0000000A0000005C00000040
S11331C00B0000005C0000000C0000005C0000002C
S11331D00D0000005C0000000E0000005C00000018
S11331E00F0000005C000000100000005C00000004
S11331F0110000005C000000120000005C000000F0
S1133200130000005C000000150000005C000000DA
S1133210160000005C000000190000005C000000C3
S11332201A0000005C0000001B0000005C000000AD
S1133230300000005C000000310000005C00000071
S11332403C0000005C0000003D0000005C00000049
S11332503E0000005C0000003F0000005C00000035
S1133260400000005C0000004F0000005C00000013
S1133270500000005C000000550000005C000000ED
S1133280560000005C0000005D0000005C000000CF
S1133290650000005C0000006C0000005C000000A1
S11332A0060000005D000000070000005D00000053
S11332B0080000005D000000090000005D0000003F
S11332C00A0000005D0000000B0000005D0000002B
S11332D00C0000005D0000000D0000005D00000017
S11332E00E0000005D0000000F0000005D00000003
S11332F0100000005D000000110000005D000000EF
S1133300120000005D000000130000005D000000DA
S1133310140000005D000000150000005D000000C6
S1133320160000005D000000190000005D000000B0
S11333301A0000005D0000002E0000005D00000087
S11333402F0000005D000000380000005D00000058
S1133350390000005D0000003A0000005D0000003C
S11333603B0000005D0000004E0000005D00000016
S11333704F0000005D000000510000005D000000EF
S1133380550000005D000000560000005D000000D4
S11333905D0000005D000000650000005D000000AD
S11333A06C0000005D000000060000005E000000EC
S11333B0070000005E000000080000005E0000003E
S11333C0090000005E0000000A0000005E0000002A
S11333D00B0000005E0000000C0000005E00000016
S11333E00D0000005E0000000E0000005E00000002
S11333F00F0000005E000000100000005E000000EE
S1133400110000005E000000120000005E000000D9
S1133410130000005E000000150000005E000000C4
S1133420180000005E0000001A0000005E000000AA
S11334302D0000005E000000340000005E0000006B
S1133440350000005E000000360000005E00000051
S1133450370000005E0000004D0000005E00000028
S11334604E0000005E000000510000005E000000FD
S1133470520000005E000000550000005E000000E5
S1133480560000005E0000005D0000005E000000C9
S1133490650000005E0000006C0000005E0000009B
S11334A0050000005F000000060000005F0000004F
S11334B0070000005F000000080000005F0000003B
S11334C0090000005F0000000A0000005F00000027
S11334D00B0000005F0000000C0000005F00000013
S11334E00D0000005F0000000E0000005F000000FF
S11334F00F0000005F000000100000005F000000EB
S1133500110000005F000000120000005F000000D6
S1133510130000005F000000140000005F000000C2
S1133520150000005F000000160000005F000000AE
S1133530170000005F000000190000005F00000099
S1133540310000005F000000320000005F00000056
S1133550330000005F0000004C0000005F0000002A
S11335604D0000005F000000520000005F000000FA
S1133570550000005F000000560000005F000000DE
S11335805D0000005F0000006C0000005F000000B0
S1133590040000006000000005000000600000005E
S11335A0060000006000000007000000600000004A
S11335B00800000060000000090000006000000036
S11335C00A000000600000000B0000006000000022
S11335D00C000000600000000D000000600000000E
S11335E00E000000600000000F00000060000000FA
S11335F010000000600000001100000060000000E6
S113360012000000600000001300000060000000D1
S113361014000000600000001500000060000000BD
S113362017000000600000001800000060000000A7
S11336302F00000060000000300000006000000067
S11336404B000000600000004C000000600000001F
S11336505200000060000000530000006000000001
S113366055000000600000005600000060000000EB
S11336705D000000600000006500000060000000C4
S11336806C00000060000000040000006100000005
S11336900500000061000000060000006100000059
S11336A00700000061000000080000006100000045
S11336B009000000610000000A0000006100000031
S11336C00B000000610000000C000000610000001D
S11336D00D000000610000000E0000006100000009
S11336E00F000000610000001000000061000000F5
S11336F011000000610000001200000061000000E1
S113370013000000610000001400000061000000CC
S113371015000000610000001600000061000000B8
S113372018000000610000001A00000061000000A1
S11337302E000000610000004A000000610000004B
S11337404B00000061000000530000006100000015
S113375054000000610000005600000061000000F9
S11337605D000000610000006200000061000000D4
S113377063000000610000006500000061000000BB
S113378066000000610000006B00000061000000A2
S1133790030000006200000004000000620000005A
S11337A00500000062000000060000006200000046
S11337B00700000062000000080000006200000032
S11337C009000000620000000A000000620000001E
S11337D00B000000620000000C000000620000000A
S11337E00D000000620000000E00000062000000F6
S11337F00F000000620000001000000062000000E2
S113380011000000620000001200000062000000CD
S113381013000000620000001400000062000000B9
S113382015000000620000001600000062000000A5
S11338301700000062000000190000006200000090
S113384026000000620000002D000000620000005D
S11338502E000000620000002F0000006200000043
S1133860300000006200000031000000620000002F
S1133870320000006200000033000000620000001B
S11338803400000062000000350000006200000007
S113389036000000620000003700000062000000F3
S11338A038000000620000003900000062000000DF
S11338B03A000000620000003B00000062000000CB
S11338C03C000000620000003D00000062000000B7
S11338D03E000000620000003F00000062000000A3
S11338E04900000062000000550000006200000072
S11338F05600000062000000570000006200000053
S11339005D000000620000005E0000006200000034
S1133910600000006200000061000000620000001E
S11339206200000062000000670000006200000006
S113393068000000620000006900000062000000EE
S11339406A00000062000000030000006300000041
S11339500400000063000000050000006300000094
S11339600600000063000000070000006300000080
S1133970080000006300000009000000630000006C
S11339800A000000630000000B0000006300000058
S11339900C000000630000000D0000006300000044
S11339A00E000000630000000F0000006300000030
S11339B0100000006300000011000000630000001C
S11339C01200000063000000130000006300000008
S11339D014000000630000001500000063000000F4
S11339E016000000630000001700000063000000E0
S11339F018000000630000001900000063000000CC
S1133A00400000006300000041000000630000006B
S1133A104200000063000000480000006300000052
S1133A2057000000630000005B000000630000001A
S1133A305C000000630000005D0000006300000003
S1133A405F000000630000006000000063000000ED
S1133A5061000000630000006200000063000000D9
S1133A6069000000630000006A00000063000000B9
S1133A700300000064000000040000006400000073
S1133A80050000006400000006000000640000005F
S1133A90070000006400000008000000640000004B
S1133AA009000000640000000A0000006400000037
S1133AB00B000000640000000C0000006400000023
S1133AC00D000000640000000E000000640000000F
S1133AD00F000000640000001000000064000000FB
S1133AE011000000640000001200000064000000E7
S1133AF013000000640000001400000064000000D3
S1133B0015000000640000001600000064000000BE
S1133B1017000000640000001800000064000000AA
S1133B20190000006400000022000000640000008E
S1133B302C00000064000000450000006400000048
S1133B40460000006400000047000000640000001C
S1133B5057000000640000005800000064000000EA
S1133B6059000000640000005A00000064000000D6
S1133B705B000000640000006100000064000000BD
S1133B8062000000640000006B000000640000009C
S1133B900200000065000000030000006500000052
S1133BA0040000006500000005000000650000003E
S1133BB0060000006500000007000000650000002A
S1133BC00800000065000000090000006500000016
S1133BD00A000000650000000B0000006500000002
S1133BE00C000000650000000D00000065000000EE
S1133BF00E000000650000000F00000065000000DA
S1133C0010000000650000001100000065000000C5
S1133C1012000000650000001300000065000000B1
S1133C20140000006500000015000000650000009D
S1133C301600000065000000170000006500000089
S1133C401800000065000000450000006500000049
S1133C5046000000650000005900000065000000F7
S1133C605A000000650000005B00000065000000D1
S1133C70020000006600000003000000660000006F
S1133C80040000006600000005000000660000005B
S1133C900600000066000000070000006600000047
S1133CA00800000066000000090000006600000033
S1133CB00A000000660000000B000000660000001F
S1133CC00C000000660000000D000000660000000B
S1133CD00E000000660000000F00000066000000F7
S1133CE010000000660000001100000066000000E3
S1133CF012000000660000001300000066000000CF
S1133D0014000000660000001500000066000000BA
S1133D1016000000660000001700000066000000A6
S1133D2018000000660000002F000000660000007C
S1133D303000000066000000310000006600000052
S1133D40320000006600000033000000660000003E
S1133D50340000006600000035000000660000002A
S1133D603600000066000000370000006600000016
S1133D703800000066000000390000006600000002
S1133D803A000000660000003B00000066000000EE
S1133D9043000000660000004400000066000000CC
S1133DA045000000660000005A00000066000000A4
S1133DB05B000000660000000200000067000000D5
S1133DC0030000006700000004000000670000001A
S1133DD00500000067000000060000006700000006
S1133DE007000000670000000800000067000000F2
S1133DF009000000670000000A00000067000000DE
S1133E000B000000670000000C00000067000000C9
S1133E100D000000670000000E00000067000000B5
S1133E200F000000670000001000000067000000A1
S1133E30110000006700000012000000670000008D
S1133E401300000067000000140000006700000079
S1133E501500000067000000160000006700000065
S1133E601700000067000000180000006700000051
S1133E7026000000670000003C000000670000000E
S1133E803D000000670000003E00000067000000E5
S1133E903F000000670000004000000067000000D1
S1133EA042000000670000004300000067000000BB
S1133EB00300000068000000040000006800000027
S1133EC00500000068000000060000006800000013
S1133ED007000000680000000800000068000000FF
S1133EE009000000680000000A00000068000000EB
S1133EF00B000000680000000C00000068000000D7
S1133F000D000000680000000E00000068000000C2
S1133F100F000000680000001000000068000000AE
S1133F20110000006800000012000000680000009A
S1133F301300000068000000140000006800000086
S1133F401500000068000000160000006800000072
S1133F50170000006800000018000000680000005E
S1133F602C000000680000002D0000006800000024
S1133F702E000000680000002F0000006800000010
S1133F8040000000680000004100000068000000DC
S1133F9042000000680000004300000068000000C8
S1133FA044000000680000000500000069000000F3
S1133FB0060000006900000007000000690000001E
S1133FC0080000006900000009000000690000000A
S1133FD00A000000690000000B00000069000000F6
S1133FE00C000000690000000D00000069000000E2
S1133FF00E000000690000000F00000069000000CE
S113400010000000690000001100000069000000B9
S113401012000000690000001300000069000000A5
S11340201400000069000000150000006900000091
S1134030160000006900000017000000690000007D
S11340401800000069000000300000006900000052
S11340503100000069000000320000006900000027
S113406033000000690000003E0000006900000009
S11340703F000000690000004000000069000000EB
S113408045000000690000004600000069000000CF
S113409047000000690000004800000069000000BB
S11340A0070000006A000000080000006A00000029
S11340B0090000006A0000000A0000006A00000015
S11340C00B0000006A0000000C0000006A00000001
S11340D00D0000006A0000000E0000006A000000ED
S11340E00F0000006A000000100000006A000000D9
S11340F0110000006A000000120000006A000000C5
S1134100130000006A000000140000006A000000B0
S1134110150000006A000000160000006A0000009C
S1134120170000006A0000001E0000006A00000082
S11341301F0000006A000000340000006A00000054
S1134140350000006A000000360000006A0000002C
S11341503C0000006A0000003D0000006A0000000E
S11341603E0000006A000000490000006A000000F0
S11341704A0000006A000000090000006B00000013
S11341800A0000006B0000000B0000006B00000040
S11341900C0000006B0000000D0000006B0000002C
S11341A00E0000006B0000000F0000006B00000018
S11341B0100000006B000000110000006B00000004
S11341C0120000006B000000130000006B000000F0
S11341D0140000006B000000150000006B000000DC
S11341E0160000006B000000170000006B000000C8
S11341F0200000006B000000210000006B000000A4
S1134200270000006B000000280000006B00000085
S1134210290000006B000000370000006B00000064
S1134220380000006B0000003A0000006B00000042
S11342303B0000006B0000003C0000006B0000002D
S11342400B0000006C0000000C0000006C0000007B
S11342500D0000006C0000000E0000006C00000067
S11342600F0000006C000000100000006C00000053
S1134270110000006C000000120000006C0000003F
S1134280130000006C000000140000006C0000002B
S1134290150000006C000000160000006C00000017
S11342A0220000006C000000230000006C000000ED
S11342B02A0000006C0000002B0000006C000000CD
S11342C02C0000006C0000002D0000006C000000B9
S11342D0390000006C0000003A0000006C0000008F
S11342E03B0000006C000000100000006D000000A6
S11342F0110000006D000000120000006D000000BD
S1134300130000006D000000140000006D000000A8
S1134310150000006D000000240000006D00000086
S1134320250000006D0000002E0000006D0000005C
S11343302F0000006D000000300000006D00000040
S1134340370000006D000000380000006D00000020
S11343503C0000006D0000003D0000006D00000006
S1134360130000006E000000140000006E00000046
S1134370150000006E000000160000006E00000032
S1134380170000006E000000180000006E0000001E
S1134390190000006E0000001A0000006E0000000A
S11343A01B0000006E000000260000006E000000EC
S11343B0270000006E000000310000006E000000C5
S11343C0320000006E000000330000006E000000A8
S11343D0340000006E000000350000006E00000094
S11343E0360000006E0000003E0000006E00000079
S11343F0170000006F000000180000006F000000AC
S1134400190000006F0000001A0000006F00000097
S11344101B0000006F0000001C0000006F00000083
S11344201D0000006F0000001E0000006F0000006F
S11344301F0000006F000000200000006F0000005B
S1134440210000006F000000220000006F00000047
S1134450280000006F000000290000006F00000029
S11344602F0000006F000000300000006F0000000B
S1134470310000006F000000320000006F000000F7
S1134480330000006F000000350000006F000000E2
S1134490360000006F000000370000006F000000CD
S11344A0380000006F0000002100000070000000D0
S11344B022000000700000002300000070000000D3
S11344C024000000700000002500000070000000BF
S11344D026000000700000002700000070000000AB
S11344E02800000070000000290000007000000097
S11344F02A000000700000002B0000007000000083
S11345002C000000700000002D000000700000006E
S11345102E000000700000002F000000700000005A
S113452039000000700000003A0000007000000034
S11345302600000071000000270000007100000048
S11345402800000071000000290000007100000034
S11345502A000000710000002C000000710000001F
S11345602D000000710000003B00000071000000FD
S11345702E000000720000002F00000073000000F5
S113458030000000730000003100000074000000DF
S113459032000000750000003300000075000000C8
S10F45A03400000076000000430000001E
S11345AC0000000098480000004900006849000021
S11345BC00000000000000000000000000000000EB
S11345CC00000000000000000000000000000000DB
S11345DC00000000A84500000000000000000000DE
S11345EC00000000000000000000000000000000BB
S11345FC00000000000000000000000000000000AB
S113460C000000000000000000000000000000009A
S113461C000000000000000000000000000000008A
S113462C000000000000000000000000000000007A
S113463C000000000000000000000000000000006A
S113464C0000000001000000000000000E33CDABA0
S113465C34126DE6ECDE05000B00000000000000D7
S113466C000000000000000000000000000000003A
S113467C000000000000000000000000000000002A
S113468C000000000000000000000000000000001A
S113469C000000000000000000000000000000000A
S10749CC00000000E3
S10B49D0AC450000AC450000F9
S9030000FC
