:020000020000FC
:2000000006C00074DEE00004DEF6303ADEC001D4DEF6303A06800074D6A6580406000034E9
:20000800C6065C04008000341080A2041000683ADEFC2304DFC3DC15DCC3DB15DC83DA159F
:20001000DC43D915DC03D8150183D7840140003429417804D809883A000013C0D821883A8C
:20001800DC400044DCC3D78404800FC4900D883A894000078100000700000A40840000840E
:200020008C40008484FFF91EDFC3DC17DCC3DB17DC83DA17DC43D917DC03D817DEC3DD0401
:20002800F800283A2008923A214B883A300C943A298B883A00A8801411400035F800283AA0
:200030003005883A30000B26280F883A298B883A012201140222001420C0003718FFFFEC60
:20003800183FFD2638C0000740C0003539C00044397FF91EF800283A0122001420C0003746
:2000400018A0000C103FFD261805D43A108000443080012E3005883A0080070E2809883A0D
:20004800288B883A01A2001420C0000530C0003721000044217FFC1EF800283ADEFFFD0409
:20005000DFC00215DC400115DC00001500C003C42005883A1980452E2906B03A18C000CC80
:200058001800441E347FFC048822D13A28C00104234001048820913A2B00020422C00204C5
:20006000840005042A800304224003042C21883A2811883A200F883A410000171FC0001790
:2000680063C0001739000015538000176FC000155BC000154B80001518C0040439C00404D1
:20007000420004046B400404630004045AC00404528004044A4004041C3FEF1E89C0004485
:20007800380E913A310003CC02C000C411C7883A29CB883A5900212E1813883A2811883AF1
:20008000200F883A428000174A40010439FFFF044ABFFF154200010459FFFA36213FFF047D
:200088002008D0BA318000CC210000442109883A2109883A1907883A290B883A30000626B8
:20009000198D883A29C0000318C000442940004419FFFFC519BFFB1EDFC00217DC4001177A
:20009800DC000017DEC00304F800283A2007883A003FF2062007883A003FF106200D883A28
:2000A000003FEE06F800283A008000340180003410865C0431865C04DEFFFF04000B883A90
:2000A8001009883A308DC83ADFC0001500002CC0000028400009883A000D883A000B883A2F
:2000B000000003001009883A00002D0000003081DEFFFE04000B883ADC000015DFC0011522
:2000B8002021883A000043000080003410865A041100001720800F1710000126103EE83AA5
:2000C0008009883A00005B4020C000CC2005883A1800442631FFFFC4300040262813883A9F
:2000C800200D883A2007883A000004063A3FFFC43180004438003926400F883A18C0004441
:2000D000324000051A0000CC403FF81E010000C421C02D2E29003FCC200C923A3108B03ACE
:2000D800200C943A218CB03A010003C421C0182E3B3FFC046018D13A1A0001041AC002048C
:2000E0006008913A1A8003041813883A210005041909883A4980001541800015598000158F
:2000E80051800015420004044A4004045AC0040452800404413FF71E630000446018913ABB
:2000F00039C003CC010000C41B07883A21C00E2E1813883A3811883A010000C449800015C7
:2000F800423FFF044A400104223FFC36393FFF042008D0BA39C000CC210000442109883AFF
:200100002109883A1907883A3800052619CF883A1940000518C0004438FFFD1EF800283ADE
:20010800F800283A2007883A300F883A003FC706DEFFF504DF000915DD400615DC80031508
:20011000DFC00A15DDC00815DD800715DD000515DCC00415DC400215DC000115D90000151F
:200118002839883A04800044057FFFC40080003410865A04120000174500521744C05204BC
:20012000A0001C26A080011715FFFFC4B8000D16140000448421883A8421883A84402004E5
:20012800A463883AA421883AE0001E2680804017E0801C26BDFFFFC4843FFF048C7FFF04F7
:20013000BD7FF91E008000341080000410000926A08001171000301EA080001710003226A0
:20013800A009883A98800015000000009D000017A03FE41EDFC00A17DF000917DDC00817FF
:20014000DD800717DD400617DD000517DCC00417DC800317DC400217DC000117DEC00B04EE
:20014800F800283AA080011780C0001710BFFFC415C0142680000015183FDE2695C8983AEE
:20015000A0806217A58001172084703A10000B26A08063172088703A20000C1E8940001714
:20015800D9000017183EE83AA080011715BFBF1E98800017153FCF26003FBC06183EE83A45
:20016000003FF906A5C00115003FEB0689000017183EE83A003FF406A0800017A027883A85
:200168001029883A003FB6060005883A003FFB06F800283ADEFFFE04DC000015DFC001159B
:200170002021883A00005B008005883A003FFF06DFC00117DC000017DEC00204F800283ADE
:20017800015401530156015501580157015A0159015C015B0243024202450244024702464B
:2001800002490248024B024A024D024C0251025002530252025E025D033D025F033F033E63
:20018800034B0340034D034C034F034E036003500447036104490448044B044A0462044C33
:20019000053B0463054505440547054605650564063B063A06430642066606440739066736
:200198000740073B07670741077407680776077507780777077A07790838077B083B0839E1
:2001A000083F083E0871086908730872087508740877087608790878087B087A087D087CCE
:2001A800087F087E093C0938093E093D0970096F097B0971097F097C0981098009830982F1
:2001B0000A3A0A370A3C0A3B0A6F0A6E0A7C0A720A830A7D0A850A840A870A860B370A8806
:2001B8000B3A0B390B720B6D0B7D0B740B870B7E0B890B880B8B0B8A0C380C360C6C0C39F2
:2001C0000C710C700C740C730C7E0C760C8C0C8B0C8E0C8D0D370D360D6B0D380D710D6F7B
:2001C8000D760D730D7E0D790D8F0D8E0D910D900E360E350E6B0E370E700E6F0E750E734D
:2001D0000E7B0E780E7F0E7E0E920E910E940E930F360F350F700F6E0F750F720F7A0F78CB
:2001D8000F7D0F7B0F940F7F0F960F9510351034106F106E1072107010771074107C107ACE
:2001E000107F107D1097109611331098116D11341171116F11771174117C11791180117FA0
:2001E800119A119912331232126D123B1270126E12731271127912761280127B129C129BB6
:2001F00013321331136C133B1370136E13761373137B1378139B13801430139C14391431A7
:2001F800146D143A14721470147814751480147A153A15301572156F15771575157C157A02
:20020000162F1580166E16381671166F16771674167C1679168116801736172E1739173890
:200208001771176E17761774177917781780177B182D17811836183418391837186E186D47
:200210001873187018761875187A1878187E187B18811880192D192C1970193419751973A9
:20021800197A19771980197D1A2B19811A341A2C1A381A351A721A6F1A771A741A7C1A7903
:200220001B2A1A811B6F1B2B1B741B721B791B761B811B7C1C2A1C291C731C711C781C76CD
:200228001C811C7B1D291D281D731D711D781D751D7D1D7B1D811D7E1E271D821E701E288F
:200230001E741E721E771E751E7D1E7A1F271E821F721F701F771F741F7C1F7A1F831F828B
:20023800202720262071203620762073207C20792083207E212621252171213521762173F3
:20024000217B21792183217E22252224223522342272227022782275227D227B232322846C
:200248002372232423782375237D237A2384237F247124332475247424792477247C247A6E
:200250002484247F25242485257125702576257425792577257F257C262425852670263291
:200258002674267326782676267E267B2680267F26862685275F2732276F27622773277201
:2002600027782775277D277B2780277F28242786285E28252862285F286F2863287428727B
:2002680028772875287D287A287F287E2886288129242923292C29252960295F29632961EC
:20027000296E29642974297229772976297C297A2980297F2A2129862A232A222A252A240A
:200278002A2C2A262A5D2A392A602A5E2A632A622A732A712A752A742A792A762A7E2A7CA5
:200280002A862A802B242A872B262B252B2C2B2B2B382B302B5F2B392B632B602B652B64D2
:200288002B732B712B792B752B7E2B7B2B862B7F2C262B872C2F2C2B2C382C372C3A2C39E6
:200290002C5B2C5A2C5E2C5C2C642C602C722C652C742C732C782C752C7B2C7A2C7F2C7DBF
:200298002C862C812D262C872D2B2D2A2D362D2F2D382D372D5B2D392D5E2D5D2D602D5F8E
:2002A0002D622D612D652D642D712D662D742D722D782D772D7D2D7A2D812D7F2D872D8632
:2002A8002E2A2E262E372E2E2E3C2E382E3E2E3D2E402E3F2E422E412E442E432E462E459E
:2002B0002E482E472E5B2E492E5E2E5C2E632E612E712E652E742E732E792E772E7E2E7CF6
:2002B8002E872E812F292F262F3A2F2A2F3C2F3B2F3F2F3E2F412F402F432F422F452F44FA
:2002C0002F472F462F492F482F4B2F4A2F5B2F592F5D2F5C2F612F602F642F622F732F71A3
:2002C8002F782F762F7C2F792F802F7E30262F87302D302930393034303B303A3040303ED9
:2002D00030423041304430433046304530483047304A30493059304B305C305A305F305E40
:2002D800306230613065306430783076307D307B3087308031283126312C31293138313478
:2002E000313A3139313D313C3140313E31423141314431433146314531493148314B314AC9
:2002E8003158314C315B31593160315C3163316231773175317B3178317F317D3187318328
:2002F000322632253234322832383237323A3239323C323B323E323D3241323F324332424E
:2002F8003245324432473246324A3249325A3258325D325B325F325E326332613277326457
:20030000327D327A3282327F329C328733273325332B332833383337333A3339333D333C9E
:200308003340333F33493348335C335A335F335E33763360337A3379337F337C3387338255
:20031000339B339A3425339C342734263433342A34363434343A3437343D343B3440343E1F
:200318003442344134443443344634453448344734593457345D345B3460345F3462346177
:2003200034763463347C34793482347E34983487349A34993526352535383536353B35392A
:20032800353D353C3543354135453544355D355C3560355E35623561357E356335873581BC
:2003300035973588362535983635362936373636363B363A363D363C3640363F36433641B8
:20033800365F364536633661367D3664368336813688368736973696372537243735373406
:2003400037383737373B3739373E373C3740373F3762376137803763378737833795378884
:20034800382337963836382438393837383B383A383F383D388038643888388339233895FA
:2003500039393927393D393B3980397F39883982399539943A233A223A843A823A943A8886
:200358003B223B213B823B263B883B843B943B933C213C203C813C253C843C823C933C88A7
:200360003D203D1F3D813D253D883D833E1F3D933E833E243E883E843E933E923F823F1E88
:200368003F843F833F923F88401E401D4084402340924088411D411C41834122419141885F
:20037000421B41924221421C4288428342914289431B431A43884320439043894419439196
:20037800441F441A44904489451945184589451E4590458F461846174689461D4717468F4E
:20038000478E47894816478F488E488949164915491B491A4989497E4A14498D4A194A15CA
:200388004A7D4A7C4A8A4A894A8D4A8C4B144B134B7B4B184B8A4B7C4B8C4B8B4C134C1288
:200390004C7B4C7A4C8B4C8A4D794D124D884D7A4D8A4D894E784E114F104E794F644F1147
:200398004F664F654F684F674F774F69500F4F7850125010506150605063506250655064DA
:2003A00050685066506A5069506C506B50765075510E50775111510F515D5114515F515E00
:2003A800516C5160516E516D5170516F5172517151745173520D51755210520E5214521309
:2003B000525C525B5270525D52725271530D52735310530F5314531253595316535B535AB4
:2003B800536B5365540E540C5411540F541454125457541554595458546B5465550C550BB1
:2003C0005510550E551455135517551655575556556C5566560B560A560D560C560F560E8B
:2003C800561356125616561556435642564556445647564656495648564B564A564D564C0B
:2003D000564F564E565656555666565E570A566C570C570B570E570D5710570F57125711AE
:2003D8005715571457195718573E573D5740573F57545741575E5755576C5766580A580912
:2003E000580C580B580E580D5810580F581358115815581458175816583B583A5853583CAE
:2003E800585658545866585E5909586C590B590A590D590C590F590E5911591059135912F6
:2003F0005916591459195918593859375952593959565953596C595E5A095A085A0B5A0A6B
:2003F8005A0D5A0C5A0F5A0E5A115A105A135A125A175A155A205A185A355A345A515A3675
:200400005A555A525A5D5A565A6C5A655B085B075B0A5B095B0C5B0B5B0E5B0D5B105B0F94
:200408005B125B115B165B145B325B175B505B335B555B515B5D5B565B6C5B655C085C07D0
:200410005C0A5C095C0C5C0B5C0E5C0D5C105C0F5C125C115C155C135C195C165C1B5C1AF9
:200418005C315C305C3D5C3C5C3F5C3E5C4F5C405C555C505C5D5C565C6C5C655D075D06E6
:200420005D095D085D0B5D0A5D0D5D0C5D0F5D0E5D115D105D135D125D155D145D195D16F2
:200428005D2E5D1A5D385D2F5D3A5D395D4E5D3B5D515D4F5D565D555D655D5D5E065D6CB9
:200430005E085E075E0A5E095E0C5E0B5E0E5E0D5E105E0F5E125E115E155E135E1A5E18DC
:200438005E345E2D5E365E355E4D5E375E515E4E5E555E525E5D5E565E6C5E655F065F059D
:200440005F085F075F0A5F095F0C5F0B5F0E5F0D5F105F0F5F125F115F145F135F165F15C4
:200448005F195F175F325F315F4C5F335F525F4D5F565F555F6C5F5D600560046007600665
:2004500060096008600B600A600D600C600F600E6011601060136012601560146018601792
:200458006030602F604C604B60536052605660556065605D6104606C6106610561086107ED
:20046000610A6109610C610B610E610D6110610F611261116114611361166115611A611861
:20046800614A612E6153614B615661546162615D61656163616B6166620462036206620536
:2004700062086207620A6209620C620B620E620D6210620F62126211621462136216621564
:2004780062196217622D6226622F622E623162306233623262356234623762366239623857
:20048000623B623A623D623C623F623E6255624962576256625E625D626162606267626241
:20048800626962686303626A630563046307630663096308630B630A630D630C630F630E77
:2004900063116310631363126315631463176316631963186341634063486342635B635792
:20049800635D635C6360635F63626361636A6369640464036406640564086407640A6409CA
:2004A000640C640B640E640D6410640F6412641164146413641664156418641764226419CC
:2004A8006445642C6447644664586457645A64596461645B646B64626503650265056504F9
:2004B0006507650665096508650B650A650D650C650F650E65116510651365126515651404
:2004B800651765166545651865596546655B655A66036602660566046607660666096608C2
:2004C000660B660A660D660C660F660E66116610661366126615661466176616662F66188E
:2004C8006631663066336632663566346637663666396638663B663A66446643665A66450C
:2004D0006702665B670467036706670567086707670A6709670C670B670E670D6710670FBB
:2004D80067126711671467136716671567186717673C6726673E673D6740673F674367420F
:2004E000680468036806680568086807680A6809680C680B680E680D6810680F68126811D4
:2004E800681468136816681568186817682D682C682F682E684168406843684269056844ED
:2004F0006907690669096908690B690A690D690C690F690E69116910691369126915691484
:2004F800691769166930691869326931693E69336940693F69466945694869476A086A0761
:200500006A0A6A096A0C6A0B6A0E6A0D6A106A0F6A126A116A146A136A166A156A1E6A172D
:200508006A346A1F6A366A356A3D6A3C6A496A3E6B096A4A6B0B6B0A6B0D6B0C6B0F6B0ED0
:200510006B116B106B136B126B156B146B176B166B216B206B286B276B376B296B3A6B381D
:200518006B3C6B3B6C0C6C0B6C0E6C0D6C106C0F6C126C116C146C136C166C156C236C2283
:200520006C2B6C2A6C2D6C2C6C3A6C396D106C3B6D126D116D146D136D246D156D2E6D25B0
:200528006D306D2F6D386D376D3D6D3C6E146E136E166E156E186E176E1A6E196E266E1B9D
:200530006E316E276E336E326E356E346E3E6E366F186F176F1A6F196F1C6F1B6F1E6F1D55
:200538006F206F1F6F226F216F296F286F306F2F6F326F316F356F336F376F3670216F38EF
:2005400070237022702570247027702670297028702B702A702D702C702F702E703A7039F1
:200548007127712671297128712C712A713B712D732F722E7431733075337532000076342C
:20055000000000430000000000001830000018980000190000000000000000000000000037
:2005580000000000000000000000000000000000000000000000000000001540000000002E
:2005600000000000000000000000000000000000000000000000000000000000000000007B
:20056800000000000000000000000000000000000000000000000000000000000000000073
:2005700000000000000000000000000000000000000000000000000000000000000000006B
:2005780000000000000000000000000100000000ABCD330EE66D12340005DEEC0000000B36
:2005800000000000000000000000000000000000000000000000000000000000000000005B
:20058800000000000000000000000000000000000000000000000000000000000000000053
:2005900000000000000000000000000000000000000000000000000000000000000000004B
:20059800000000000000000000000000000000000000000000000000000000000000000043
:2005A00000000000000000000000000000000000000000000000000000000000000000003B
:2005A800000000000000000000000000000000000000000000000000000000000000000033
:2005B00000000000000000000000000000000000000000000000000000000000000000002B
:2005B800000000000000000000000000000000000000000000000000000000000000000023
:2005C00000000000000000000000000000000000000000000000000000000000000000001B
:2005C800000000000000000000000000000000000000000000000000000000000000000013
:2005D00000000000000000000000000000000000000000000000000000000000000000000B
:2005D800000000000000000000000000000000000000000000000000000000000000000003
:2005E0000000000000000000000000000000000000000000000000000000000000000000FB
:2005E8000000000000000000000000000000000000000000000000000000000000000000F3
:2005F0000000000000000000000000000000000000000000000000000000000000000000EB
:2005F8000000000000000000000000000000000000000000000000000000000000000000E3
:200600000000000000000000000000000000000000000000000000000000000000000000DA
:200608000000000000000000000000000000000000000000000000000000000000000000D2
:200610000000000000000000000000000000000000000000000000000000000000000000CA
:200618000000000000000000000000000000000000000000000000000000000000000000C2
:200620000000000000000000000000000000000000000000000000000000000000000000BA
:200628000000000000000000000000000000000000000000000000000000000000000000B2
:200630000000000000000000000000000000000000000000000000000000000000000000AA
:200638000000000000000000000000000000000000000000000000000000000000000000A2
:2006400000000000000000000000000000000000000000000000000000000000000000009A
:20064800000000000000000000000000000000000000000000000000000000000000000092
:2006500000000000000000000000000000000000000000000000000000000000000000008A
:200658000000000000000000000015440000154400000000000000000000000000000000D0
:2006600000000000000000000000000000000000000000000000000000000000000000007A
:20066800000000000000000000000000000000000000000000000000000000000000000072
:2006700000000000000000000000000000000000000000000000000000000000000000006A
:20067800000000000000000000000000000000000000000000000000000000000000000062
:00000001FF
